:020000040800F2
:10000000700600208D010008950100089701000886
:10001000990100089B0100089D01000800000000F4
:100020000000000000000000000000009F01000828
:10003000A101000800000000A3010008A5010008BC
:10004000A7010008A7010008A7010008A7010008F0
:10005000A7010008A7010008A7010008A7010008E0
:10006000A7010008A7010008A7010008A7010008D0
:10007000A7010008A7010008A7010008A7010008C0
:10008000A7010008A7010008A7010008A7010008B0
:10009000A7010008A7010008A7010008A7010008A0
:1000A000A7010008A7010008A7010008A701000890
:1000B000A7010008A7010008A7010008A701000880
:1000C000A7010008A7010008A7010008A701000870
:1000D000A7010008A7010008A7010008A701000860
:1000E000F50B0008A7010008A701000800F002F8BE
:1000F00000F03CF80AA090E8000C82448344AAF186
:100100000107DA4501D100F031F8AFF2090EBAE883
:100110000F0013F0010F18BFFB1A43F0010318473B
:10012000FC1B00000C1C00000023002400250026FE
:10013000103A28BF78C1FBD8520728BF30C148BF4A
:100140000B607047662901F09D85642900F052809C
:10015000002070471FB500F0C1FB04000020002103
:1001600001F0ECFAE0601FBD10B510BD00F0B6FC68
:100170001146FFF7EFFF00F03FFE00F0D4FC03B4A0
:10018000FFF7F2FF03BC00F017FD000009488047AD
:1001900009480047FEE7FEE7FEE7FEE7FEE7FEE769
:1001A000FEE7FEE7FEE7FEE704480549054A064B81
:1001B00070470000F50C0008ED00000870000020FA
:1001C0007006002070020020700200200FB41CB5E1
:1001D000074B06AA7B4469460090059800F065FB32
:1001E0000020694600F074FB1CBC5DF814FB0000A5
:1001F000F90600002DE9F041064600241068752933
:10020000314616A510D0AFF30080002802DA404234
:1002100013A507E031688A0701D512A502E0490756
:1002200004D511A5012401E0AFF3008000210A22CA
:1002300006F1240709E0B0FBF2FCB0FBF2F302FB8D
:100240001C00303078541846491C0028F3D123464E
:100250002A463046BDE8F04100F0BBB8000000007F
:100260002D0000002B000000200000002DE9F047C9
:100270004FF0000A89460446C0F820A02046E168F5
:100280008847002876D0252806D0D4E90121904758
:10029000206A401C2062F1E7E1682046002688477A
:1002A000C4F81CA005460027C4F818A02A2D09D0C0
:1002B000284601F03BFA38B304EB8708303DC8F814
:1002C000185019E059F8041B204604EB870291618D
:1002D000E1688847012F054618D1E069002820DA37
:1002E00026F020061DE0D8F8180000EB800005EB92
:1002F00040003038C8F818002046E16888470546B5
:1003000001F014FA0028EED1012F0AD02E2D08D1C9
:100310002046E16888477F1C0546022F46F02006EC
:10032000C4DBA069002803DA404246F00106A06160
:10033000F00701D026F010066C2D0AD0682D08D0E9
:100340004C2D39D06A2D35D0742D35D07A2D33D03F
:1003500016E0E1682F4620468847B84205460AD194
:100360006C2F27D04FF48060E16806432046884711
:10037000054605E027E06C2F1AD04FF48070064345
:100380000DB3A5F14100192802D8203546F40066C6
:100390004A462946204626604E46FFF7D3FE80B1E6
:1003A00001280BD0F61D26F0070000F1080965E7CB
:1003B0004020E4E78020D7E70020D5E706F10409D4
:1003C0005CE7284661E7206ABDE8F0877047704720
:1003D00070472DE9F0470D4699469246044600F1D4
:1003E00024080168880604D5E06921F01001216025
:1003F00000E00120A84201DD471B00E00027A169C1
:100400007A1902EB0900081AA0612078C00602D40C
:100410002046AFF30080002608E0D4E901211AF855
:1004200006009047206A401C761C20624E45F4DB93
:100430002078C0060AD52046AFF3008006E0D4E954
:10044000012130209047206A401C2062381EA7F10D
:100450000107F4DC07E0D4E9012118F80500904712
:10046000206A401C2062281EA5F10105F3DC20460D
:10047000AFF300802078000602D50220BDE8F087A7
:100480000120FBE72DE9FF4F0C461E464FF0FF37DA
:100490008BB0D2E90001DDF860800A908A46C1F392
:1004A0000A5505B93D46002108464FF00000BAF153
:1004B000000F00F4400005DA00EB80004FF440012B
:1004C00001EA50004FEA9059B9F1010F00DDB94639
:1004D0000A9850EA4A000ED044F61050A5F2FF35B3
:1004E00045432F14B8F1000F1ED07542291E1EDDA2
:1004F000C9F100021CE0B8F1010F4FF0000001D07B
:10050000302103E0F24305E02154401CB042FBDB04
:1005100030460022002121540B99C1F80880C1E91E
:1005200000200FB0BDE8F08FBD1B6D1CDEE74A4612
:1005300000DA694206A800F05BFA06AB93E8070010
:1005400003AB83E8070050460A9900F013FD8DE8DD
:100550000700A0F500501F3800900398002D0ADD19
:1005600042F21F014A460844002303A9039068464B
:1005700000F07CFF09E0A0F500504A461F38002338
:1005800003A90390684600F086FF8DE80700000489
:10059000000C03D04FF0FF30410800E01046B8F1E6
:1005A000000F03D00022009215461EE0751E05D4F0
:1005B00000F098F9303262556D1EF9D5B34601222C
:1005C000084302D000227F1C04E02078302801D1AB
:1005D00000227F1E002A099784D01DE0112D07DA22
:1005E00000F080F9303262556D1C50EA0102F5D1FD
:1005F000084302D00098C8B10EE00021681E05E053
:10060000235C625C63542254401E491C8142F7DB28
:10061000AB46A81B401E0990002004F80B000B9865
:10062000099AC0F80880C0E9002B7AE711264FF03C
:10063000000857E72DE9F04F88460446D21D22F006
:10064000070191B0D1E90001CDE90A0101F05AF8A2
:1006500002460B98C00F01D02D2007E020688107CB
:1006600001D52B2002E0202101EAC000032A0990D5
:1006700001D0072A05DB03464146204600F078F901
:100680000BE12078800601D5E06900E00620B8F192
:10069000650F814606D0B8F1660F18D0B8F1670F24
:1006A00070D131E00020B9F1110F009001DB11236E
:1006B00001E009F101030AAA01A90CA8FFF7E2FE73
:1006C000DDE90C70002609F10105834647E00120B1
:1006D0004B4600904FF000470AAA01A90CA8FFF76B
:1006E000D1FEDDE90DB00C995D46002610B909F187
:1006F00001000D18B9EB050003D4C0F1FF3609F174
:100700000105A5EB09002BE0B9F1010F01DA4FF06B
:1007100001090020B9F1110F0090484601DD1123B5
:1007200000E003460AAA01A90CA8FFF7ABFEDDE929
:100730000C704D4600268346207800070AD4AB454E
:1007400000DA5D4601A8012D04DD411911F8011CF4
:10075000302907D04F4502DA17F1040F04DA0120DF
:1007600082460FE06D1EEEE7002F02DCED1B3E44DB
:1007700003E0781CA84200DD7D1CB81B00F1010AD3
:100780004FF000472078000703D4AA4501DB4FF063
:10079000FF3A0021B7F1004F0DF143088DF84310E7
:1007A00024D002202B23002F01DA7F422D230A219F
:1007B000021EA0F1010000DC5FB197FBF1FC97FB8A
:1007C000F1F201FB1C7C17460CF1300C08F801CD4E
:1007D000EEE7A8F1010003702188090501D5452144
:1007E00000E06521A0F1010800F8011C09980FA99B
:1007F000A1EB0807FF1D00B10120411901EBEA70D0
:10080000A1693844081A401EA0612078C00602D4AD
:100810002046AFF30080099828B1D4E90121904720
:10082000206A401C20622078C00622D52046AFF303
:1008300000801EE0002E04DBB34502DD01A8805DD0
:1008400000E03020D4E901219047206A401C20625A
:10085000761CAAF101005FEA000A0AD100F03EF816
:10086000C0680168405CD4E901219047206A401CBF
:100870002062281EA5F10105DCDC07E0D4E9012196
:1008800018F8010B9047206A401C2062381EA7F11F
:100890000107F3DC2046AFF30080032011B041E6EE
:1008A00001694A1C02610878704700B58FB0CDE934
:1008B00001310021059105497944CDE90310114624
:1008C0006846FFF7D3FC0FB000BD0000E5FFFFFF57
:1008D0000A6802F8010B0A60704700000048704780
:1008E0002000002030B5B0F10A0271F100034FEA98
:1008F000900E4EEA817EB0EB0E0061EB91014FEA63
:10090000101E4EEA017E10EB0E0041EB11114FEA72
:10091000102E4EEA016E10EB0E0041EB11214FEA52
:10092000104E4EEA014E10EB0E0041EB1141401803
:1009300041F100014FEAD00040EA41704FEAD10195
:100940004FEA810444EA907410EB800544EB010403
:100950006D1944EB0404521BA3414FF0000348BF40
:100960000A3200D530BD401C41F1000130BD00000D
:100970002DE9F0411F46044603260168072A01F4C9
:10098000006004DB08B116A505E016A503E008B178
:1009900015A500E015A521F010002060A069C01E7B
:1009A000A0610FB1401EA0612046AFF300804FB19F
:1009B000D4E9012138469047206A401C2062C01CBF
:1009C000206206E0206AFAE7D4E9012115F8010B5C
:1009D0009047761EF8D22046AFF30080BDE8F08144
:1009E0004E414E006E616E00494E4600696E6600D3
:1009F0002DE9F047814616468AB0354878440DC83F
:100A00008DE80D0032487844801C03AC0DC884E8A2
:100A10000D0041F69B300844372190FBF1F290FB2A
:100A2000F1F5A5F1800501FB12041B3C02D56442DF
:100A3000012000E00020DFF898A080460027FA445B
:100A4000AAF1BE0A0EE0E0070AD03246684607EB7C
:100A5000470101230AEB810100F01DFD8DE807002D
:100A600064107F1C002CEED1194F7F44AE3F19E07B
:100A7000E80715D007EB04100DF1180A90E80E00F6
:100A80008AE80E00C068F04201D1981908903246F9
:100A9000012306A903A800F0FEFC03AB83E80700CE
:100AA0006D10641C002DE3D14FF0010332466946FE
:100AB000B8F1000F03A802D000F0D8FC01E000F06C
:100AC000EAFCC9E90001C9F808200AB0BDE8F087CE
:100AD0000413000000487047000000207546FFF72F
:100AE000F9FFAE4605006946534620F007008546EB
:100AF00018B020B5FFF758FBBDE820404FF00006C6
:100B00004FF000074FF000084FF0000BAC46ACE888
:100B1000C009ACE8C009ACE8C009ACE8C00921F0E4
:100B200007018D46704710B50446AFF3008020469C
:100B3000BDE81040FFF723BB4FF0013C50F8042BF9
:100B400051F8043B9A4221D1A2EB0C03934313EAE0
:100B5000CC1317D150F8042B51F8043B9A4215D10D
:100B6000A2EB0C03934313EACC130BD150F8042BE4
:100B700051F8043B9A4209D1A2EB0C03934313EAC8
:100B8000CC13DBD04FF00000704700BFD01A01BA81
:100B9000B1FA81F101F0180122FA01F0CB40DBB289
:100BA000C0B2C01AC1F120012CFA01F3D11A91434D
:100BB00011EAC311E6D1704701491820ABBEFEE728
:100BC0002600020070470000B0B541F21005C4F2E3
:100BD00001052968044641F400502860204600F0D1
:100BE000CDF8286840F000502860204600F0C6F894
:100BF000B0BD000010B540F21444C4F201042068F6
:100C0000400511D50A2000F0B9F82068400558BF0A
:100C100010BD206840F48060206040F26400C2F2A1
:100C200000000168C831016010BD000080B500F00F
:100C300001F880BD82B041F204000021C4F202003C
:100C40000191009150F8041C41F4803140F8041CDB
:100C500050F8041C01F40031009101990131019117
:100C6000009919B90199B1F5A06FF1D150F8041CA0
:100C7000890354BF0021012100910099012936D137
:100C800042F20001C4F202010A6842F010020A6056
:100C90000A6822F003020A600A6842F002020A604F
:100CA0000168016001680160016841F480610160D0
:100CB000016821F47C110160016841F4E8110160D0
:100CC00050F8041C41F0807140F8041C50F8041CDA
:100CD0008901FBD5016821F003010160016841F041
:100CE00002010160016801F00C010829FAD102B08B
:100CF0007047000080B541F20000C4F202000168B4
:100D0000002241F0010101604168CFF6FF0211406D
:100D1000416001684FF6FF72CFF6F6621140016044
:100D2000016821F480210160416821F4FE014160E5
:100D30004FF41F018160FFF779FF4EF60850CEF2A5
:100D400000004FF00061016080BD00004EF2041011
:100D5000CEF200004FF48071016070474EF22840DF
:100D6000CEF20000002101707047000040F608003C
:100D7000C4F201000068C0F34020704781B0002138
:100D80000091009941F288325043814206D800BF59
:100D900000990131009100998142F9D901B0704761
:100DA00080B540F20040C4F20100016841F4806166
:100DB0000160816841F480618160FFF7C7FFFFF740
:100DC000CDFF40F26000C2F200000121017080BD41
:100DD00010B584B000F0E0FE0DF1060402460B46AB
:100DE00003A12046FFF7F2F9204604B010BD00BF72
:100DF000252E336C6600000040F2680440F26C0A55
:100E000049F69A1949F6991540F2600840F2640BC8
:100E1000C2F200040520C2F2000AC9F69919C4F210
:100E200024052BA62EA7C2F20008C2F2000B2070E8
:100E300020780928FCD8DFE800F00B100A0A0A160F
:100E40000A0A3B05DBF80000FFF7BEFEF0E7EFE71C
:100E50004FF4FA70FFF7B8FEEAE7FFF787FF70B3C9
:100E600009202070E4E740F26900C2F20000007837
:100E7000002808BF00F04EF8DAF8000000F08CFE01
:100E80004A462B4600F0A2FC00F06EFCCAF80000B7
:100E9000304600F031F8DAF80000FFF799FF00F073
:100EA0002BF8384600F028F8FA20FFF767FFBFE775
:100EB00098F800000028BBD1FFF772FFB8E741F2B5
:100EC0001001C4F20101086840F400500860AFE767
:100ED00056616C7565206F6620582069733A000072
:100EE0000D00000043F60001C4F20101888000BF3C
:100EF00008884006FCD5704710B50178002908BF66
:100F000010BD441EC8B2FFF7EDFFA17801340029DF
:100F1000F8D110BD41F21800C4F20200016844F299
:100F20000902114301600420C4F20100016842F289
:100F30000D0241F00401016040F60040C4F20100DE
:100F4000016841F030610160016821F08061016059
:100F500043F60C00C4F2010041F64C5120F8041C89
:100F600001881143018040F26900C2F200000121B2
:100F7000017070475FEA400C08BF91F0000F4FEA24
:100F80008C234FEAC12243EA51514FEA1C5018BF4B
:100F900000F5F0404FEA300018BF41F000415FEA31
:100FA0006C5C00F02980BCF1FF3F08BF40F080403E
:100FB0007047130C06BF12044FF0100C4FF0000CDA
:100FC000130E04BF12020CF1080C130F04BF120120
:100FD0000CF1040C930F04BF92000CF1020CD30F20
:100FE00004BF52000CF1010C11464FF00002A0F1B9
:100FF0001F00A0EB0C00704711F0004F08BF7047B6
:1010000031F000413FF4D5AF0B0C06BF09044FF09F
:10101000100C4FF0000C0B0E04BF09020CF1080C71
:101020000B0F04BF09010CF1040C8B0F04BF8900E6
:101030000CF1020CCB0F04BF49000CF1010CCCF1F8
:10104000200322FA03F341EA030102FA0CF2A0EBB7
:101050000C0000F10100704723F07F4720F07F4C27
:1010600080EA030000F00040ACEB070303F57C537B
:1010700003F1FF032DE9804909B44FEA144324EA40
:1010800003484FEA154B25EA0B4E0FF2042606EBF8
:1010900013273E7803FB0667C7F5000707FB06F634
:1010A0004FEAD64606F102064FEA543707FB066CB4
:1010B000CCF1005C4FEA1C472CEA074C0CFB06F510
:1010C00007FB06F404EB15464FEA961649085FEA5B
:1010D000320234BF00204FF000404FEAD13706FB08
:1010E00007FC4FEA1C4C0CFB0BF7D21B03FB0CF765
:1010F00061EB07010CFB0EF7B0EB074072EB1742F8
:101100000CFB08F734BFA2EB0742B2EB074261EBDE
:1011100017414FEA0C444FEA910706FB07FC4FEAE0
:101120001C4C0CFB0BF7B0EBC74072EB573203FBC8
:101130000CF734BFA2EBC742B2EBC74261EB5731A9
:101140000CFB0EF7B0EBC70072EB57720CFB08F705
:1011500034BFA2EBC702B2EBC70261EB57714FEA93
:10116000816141EA92114FEA826242EA90124FEAAB
:10117000806004EBCC04039F4FEAD13706FB07FCE9
:101180004FEA1C4C0CFB0BF7D21B03FB0CF761EB7B
:1011900007010CFB0EF7B0EB074072EB17420CFB9C
:1011A00008F734BFA2EB0742B2EB074261EB1741ED
:1011B0004FEA8C5504EB9C244FEA910706FB07FC91
:1011C0004FEA1C4C0CFB0BF7B0EBC74072EB5732ED
:1011D00003FB0CF734BFA2EBC742B2EBC74261EB93
:1011E00057310CFB0EF7B0EBC70072EB57720CFBDC
:1011F00008F734BFA2EBC702B2EBC70261EB57712D
:101200004FEA816141EA92114FEA826242EA90120A
:101210004FEA806015EB4C2544F100044FEAD137CA
:1012200006FB07FC4FEA1C4C0CFB0BF7D21B03FB25
:101230000CF761EB07010CFB0EF7B0EB074072EB0C
:1012400017420CFB08F734BFA2EB0742B2EB074290
:1012500061EB17414FEA813141EA92414FEA823214
:1012600042EA90424FEA80304FEA0C7615EB1C15AB
:1012700044F1000448EA03434EEA0B484FF0000EE5
:10128000B2EB080C71EB030724BF624639464EEB04
:101290000E0E4FF0000B0018524149414BEB0B0B67
:1012A000B2EB080C71EB03077BF1000B24BF624625
:1012B00039464EEB0E0E4FF0000B001852414941DB
:1012C0004BEB0B0BB2EB080C71EB03077BF1000B44
:1012D00024BF624639464EEB0E0E51EA020718BF94
:1012E00046F0010616EB0E7655F1000254F10001AE
:1012F00003D5BDE88901BDE80088BDE88901BDE8E6
:101300000048B619524141EB0101A3F101037047B6
:1013100080807F7E7D7C7B7A797877767675747332
:10132000727171706F6E6E6D6C6C6B6A6A696868F1
:10133000676666656464636362616160605F5F5E87
:101340005E5D5D5C5C5B5B5A5A59595858575756FD
:101350005655555554545353525252515150505062
:101360004F4F4F4E4E4D4D4D4C4C4C4B4B4B4A4AB4
:101370004A494949484848474747474646464545F8
:101380004544444444434343434242424241414131
:101390009C46002B30D477002BD04FEA37071CB582
:1013A00003B44FF010004FF01001BAF1000F06D057
:1013B000BCF1000FDCBF40F0080040F008014FF026
:1013C00000000FBCBDE810400BF1010BBBF1010F99
:1013D00008BF5FEA170722BF12F1010211F10101F4
:1013E0004FF0004143F1000300F0004043EA0000E9
:1013F0007047F9D35708D0E746EA06464FEA164643
:1014000013F1400F1FDD13F1200FDFBF16430A4613
:10141000002120335B42BED0C3F1200746EA0646D6
:101420004FEA164602FA07F746EA070622FA03F2DF
:10143000C3F1200701FA07F742EA070221FA03F194
:101440004FF00003A7E746EA020646EA06464FEADF
:10145000164646EA0106BCBF46EA0646360C4FF081
:1014600000034FF000024FF0000194E72DE9804C9B
:1014700070B49A46934691E8380007C831EA400CA8
:1014800048BF34EA430C03D5FFF7E6FDFFF780FFC2
:10149000F0BCBDE8008C2DE9804C70B49A469346B0
:1014A00091E8380007C810F0804F08BF13F0804F54
:1014B00003D100F005F8FFF76BFFF0BCBDE8008C2E
:1014C00020F07F4723F07F4C80EA030000F00040CB
:1014D00007EB0C03A3F57C53A3F1FE0392F0000F7E
:1014E00000F0B38095F0000F00F077802DE90149FE
:1014F0004FEA114021EA00484FEA144624EA064721
:1015000000FB06FC08FB06F607FB08F818EB06488C
:101510004CEB164C00FB07F718EB07484CEB174059
:101520004FEA124B22EA0B4E4FEA154625EA0647D0
:101530000BFB06FC0EFB06F607FB0EFE1EEB064E33
:101540004CEB164C0BFB07F71EEB074E4CEB174B07
:1015500018EB0B0840F1000018EB0E0B58EB0008DD
:1015600040F100008F1A4FF000014FF000063CBF21
:10157000C943661B14BFB5EB040C00213CBFC94333
:10158000F61B4FEA174427EA04454FEA1C472CEAAA
:10159000074C04FB076205FB07F70CFB05F616EB8F
:1015A000074642EB174204FB0CFC16EB0C4642EBE1
:1015B0001C421BEB060658EB020241414EEA8E0E1E
:1015C00046EA9E0601D5BDE80189B619524141EBB4
:1015D0000101A3F10103BDE801894FEA144524EAA2
:1015E00005464FEA114721EA074C05FB07F406FBC5
:1015F00007F70CFB06F111EB074144EB174405FB21
:101600000CFC11EB0C4144EB1C444FEA124722EA5C
:10161000074C05FB07F206FB07F70CFB06F616EB7B
:10162000074642EB174205FB0CFC16EB0C4642EB5F
:101630001C456A1854F1000148BF7047B619524161
:1016400041EB0101A3F10103704795F0000F37D082
:101650004FEA114221EA02464FEA144724EA074CB6
:1016600002FB07F106FB07F70CFB06F414EB07443B
:1016700041EB174102FB0CFC14EB0C4441EB1C4109
:101680004FEA154725EA074C02FB07F506FB07F76B
:101690000CFB06F616EB074645EB174502FB0CFC68
:1016A00016EB0C4645EB1C42121951F1000148BFE4
:1016B0007047B619524141EB0101A3F10103704794
:1016C0004FEA144524EA05464FEA114721EA074C40
:1016D00005FB07F106FB07F70CFB06F212EB0742CE
:1016E00041EB174105FB0CFC12EB0C4251EB1C418A
:1016F0004FF0000648BF7047921841EB0101A3F17B
:1017000001037047490050EAC12018BF04204A0D68
:1017100018BF40F0010040F2FF72B2EB515F08BF0A
:1017200040F00200012808BF0520704730380A2821
:1017300001D20120704700207047000010B5002939
:101740000AD00878002807D005487844FFF7F4F954
:10175000002801D0002010BD0248784410BD0000D0
:10176000E2050000DA05000021F0004201F000432C
:10177000A2F16052B2F5801F28BFD2F17F6C0BD965
:101780005FEA001C43EAC20242EB507018BF704788
:1017900028BF20F001007047B2F5801FBCBF18467B
:1017A00070474FEA410C1CF5001F02D2084600F0BA
:1017B00064BA70B500F0B2F800000089FFF7F6BF18
:1017C0004FF00040A0F580007047000010B591EA8E
:1017D000030F48BF83F0004300F1FC80841A71EBD3
:1017E000030C05D2121943EB0C03001B61EB0C0137
:1017F0004FEA1154A4EB135CDFF81CE11EEA430F1F
:1018000018BF9EEA445F73D021EA045123EA0E0315
:1018100043F48013DCF1200E32D322FA0CFE10EBDD
:101820000E0023FA0CFE41EB0E01CCF1200E03FA60
:101830000EFE10EB0E00CCF1200E51F10001B1F5BF
:10184000801F32D201EB045112FA0EF2BDE81040B3
:1018500058BF7047401C38BF5FEA420218BF70474C
:10186000002814BF20F0010041F100014FEA4103BC
:1018700013F5001F38BF7047A1F1C04100F09CB8BC
:10188000012A43EB0302ACF1200CDCF11F0E32BF46
:101890004FF0000E23FA0CF310EB030041EB045160
:1018A000B4EB115FD0D0A1EB045101F580114908D0
:1018B00001EB04515FEA30000ED350F1000038BF55
:1018C00012FA0EFE08D1BDE81040C9E7401C38BF2F
:1018D0005FEA4202CAD1C3E7BDE810404FEA4103C4
:1018E00013F5001F38BF7047A1F1C04100F064B884
:1018F0009EEA445F08D011EA5E0FBDE8104004BFC5
:1019000001F0004100207047BDE8104070B500F0C4
:1019100005F800BF64FBBE3E0000E0FF0EF1020EC2
:101920002EF0030E5EF8046B364205D4012A43EB19
:10193000030515F5001F12D8012841EB010C1CF519
:10194000001F0CD80ED14FEAD17C0CEB4C0C0CF1E3
:10195000020C15F5001F08BF4CEBD37C04E04FF0E0
:10196000080C01E04FEAD37C0CEB4C0526FA05F697
:1019700006F00706B6F1040C06D20EEB860CBDE8A5
:1019800070404CF0010C6047DFE80CF0090B0202DC
:101990004FF00041A1F500214FF0000070BD194645
:1019A0001046012851EB010418BFD4F5001484BF80
:1019B000002001F0004170BD0808A0F500114FEAB9
:1019C0003101704710B591EA030F48BF83F000431F
:1019D0003FF504AF841A71EB030C07D28CF0004C76
:1019E000121943EB0C03001B61EB0C014FEA11547D
:1019F000A4EB135CDFF89CE11EEA430F18BF9EEADC
:101A0000445F00F0B08021EA045123EA6E035242A1
:101A1000C3EB6E0338BF5B1EDCF1200E25D322FA28
:101A20000CFE10EB0E0043FA0CFE41EB0E01CCF164
:101A3000200E03FA0EFE10EB0E00CCF1200E51F139
:101A4000000129D401EB045112FA0EF2BDE8104056
:101A500058BF7047401C1CBFB2F1004F70470028B0
:101A60000CBF491C20F00100704712EB020E43EB43
:101A7000030218BF4FF0010E4EEA4202ACF1200CF7
:101A8000DCF11E0E54D943FA0CFE10EB0E00CCF123
:101A90001E0E51F1FF31D5D50EF1010E12FA0EFED8
:101AA000404141EB010101EB445C5FEA5C5C10D911
:101AB00001EB045110EBDE7038BFBEF1004FBDE802
:101AC000104018BF704700280CBF491C20F00100CF
:101AD000704730D24FEAD42C24F4006411F5001181
:101AE0001BD0B1FA81F20B3AA41AA41ED2F1200342
:101AF000914030FA03F31943904001EBCC7101EBB4
:101B00000451002CBDE81040A8BF704701F1C0414E
:101B100001F000414FF000007047B0FA80F310FA76
:101B200003F100D110BDE41A173C4805C90AE4E7E7
:101B300001EB045110BD49104FEA300001EB045194
:101B4000BDE8104002E04FF0000170474A0008BFB6
:101B50000042F8D0B2F5001F28BF704701F00041E5
:101B60004FF0000070479EEA445F07D011EA5E0F15
:101B7000BDE8104004BF002100207047BDE81040C0
:101B800070B5FFF7CBFE00BF40DFF63E104683F096
:101B9000004170470000E0FF43004FEAD30C4FEADA
:101BA0003C0C43401FBF40070CF1605113F0FE4F47
:101BB00070471CF0006F03D10CF00041002070470B
:101BC0000CF0004343EA507040EACC0010B500F03E
:101BD0000EF800BF000000924FEA0001FFF7ECBED4
:101BE0004FF00041A1F500214FF0000070470EF1C9
:101BF000020E2EF0030E5EF8044B244204D44FEA8A
:101C00004102B2F17F4F11D84FEA4003B3F17F4F49
:101C10000CD80ED14FEAD07C0CEB4C0C0CF1020C22
:101C2000B2F17F4F08BF4CEBD17C04E04FF0080CC1
:101C300001E04FEAD17C0CEB4C0324FA03F404F0EE
:101C40000704B4F1040C06D20EEB840CBDE810407E
:101C50004CF0010C6047DFE80CF0070802024FF07F
:101C60000040A0F5800010BD0846420018BFD2F128
:101C7000807288BF00F0004010BDFF2141EAD050C3
:101C8000C0057047FEF7D6BC02400000000000A06F
:101C90000000000005400000000000C80000000037
:101CA0000C4000000000409C0000000019400000B3
:101CB0000020BCBE0000000034400000BFC91B8EE5
:101CC00000000004B5400000504BCFD06607E2CFC3
:101CD000010000006C4100003E8251AADFEEA734F3
:101CE00001000000D9420000DCB5A0E23A301F97A5
:101CF000FFFFFFFFB4450000FD25A0C8E9A3C14FC9
:101D0000FFFFFFFFFF3F0000000000800000000019
:101D1000FF3F00000000008000000000481D000898
:101D20000000002070060000280100081C000000D0
:101D300043000000F8FFFFFF0C0000000E00000051
:081D40000F0000002E0000005E
:040000050800018D61
:00000001FF
